import { rest } from "msw";
import { readFileSync } from "fs";
export const handlers = [
     rest.get(
    "https://api.whatsonchain.com/v1/bsv/main/tx/275667cfab138f1d780c0fe52fb2d1720d4cab2029aaf94b91e5752bbfa94dc9/hex",
    (req, res, ctx) => {
      return res(
        ctx.status(200),
        ctx.text(
          "0100000004b854f333a16537d25bee38230e55ca2bdfd760aed0cfe32ec0a611e927d61211010000006b483045022100c51832ec1e31904b2860fd4092cf865db74611d758f67051d3d6e30f3ee2c07d0220023a5c20c4df7630b1ceb09458ea0dfa280cb04e84c416226143b4bc70815213412102bf447722c1b5245160cd6fc9c11a6f7d5914f9c532fc83db797040fd2e670c64ffffffff6038f880a1efa21547b60ad8d42853ee1e1915c2cd1fd2390258444e3da39324010000006a47304402204e9486c98713fa0acf4a596e12cd6c9f8e8bc826449ed7e2f24a9d5c491e9f2c02202739ed73c7a22c409b8ce719340788fdbdd1ff158b2707fc6bb422f932dfb27041210201bc7e573be3343cbfd2a709a8ea19a10fcb0895538470bea599dec308b23813ffffffff0d933e1ab7f7fb18ca313b6b58f12e07e0f3a4cd094ee737bd87f8431a268dbd010000006b483045022100e46a08d6ba89347b19b93073e8eeeaf29480d0558a4953c2cf382f35320b2187022043bc8dc44598125772d24eb1b77c33bc6e76026d712cfa02576efb9f433898f741210347dbe007005ea841583713d09275ca00010e7baba69a7a039d93d630e21369a2ffffffff9ff13a171ed4451550a77b4c96ea0117a7a41213c9425fa54060940ef10a4fdf010000006b483045022100bd74cdb92f6bbb7ae41ebe96398ea4ddaefd915fe5f0ebed3314af7afce8614b02201281efad3352eee2d61825c8ef95b1c1c51790b773931d7b60ae1848af85ae69412102f7ade7d1f1c27d98428c7eeaf39cdf911e444f29f36ff8697f425f3ff3c6de19ffffffff03e8030000000000001976a91452afc3f5deafafe8afeddc8bf7f4c704373416fb88ac54160100000000001976a91467cefbeb28bbd328d3fb9aa6fec80aa38faaac1c88acb01e040000000000e108626f6f7374706f77750442000000201ef2143013d42fd62940d79565aeb9f405ff69955ac755a65c0d16d84d65f37f0471e5011c14736c6169726f747574736e726f6361240000000004000000002000000000000000000000000000000000000000000000000000000000000000007e7c557a766b7e52796b557a8254887e557a8258887e7c7eaa7c6b7e7e7c8254887e6c7e7c8254887eaa01007e816c825488537f7681530121a5696b768100a0691d00000000000000000000000000000000000000000000000000000000007e6c539458959901007e819f6976a96c88ac00000000"
        )
      );
    }
  ),
  rest.get(
    "https://api.whatsonchain.com/v1/bsv/main/tx/hash/275667cfab138f1d780c0fe52fb2d1720d4cab2029aaf94b91e5752bbfa94dc9",
    (req, res, ctx) => {
      return res(
        ctx.status(200),
        ctx.json(
          {"txid":"275667cfab138f1d780c0fe52fb2d1720d4cab2029aaf94b91e5752bbfa94dc9","hash":"275667cfab138f1d780c0fe52fb2d1720d4cab2029aaf94b91e5752bbfa94dc9","version":1,"size":903,"locktime":0,"vin":[{"coinbase":"","txid":"1112d627e911a6c02ee3cfd0ae60d7df2bca550e2338ee5bd23765a133f354b8","vout":1,"scriptSig":{"asm":"3045022100c51832ec1e31904b2860fd4092cf865db74611d758f67051d3d6e30f3ee2c07d0220023a5c20c4df7630b1ceb09458ea0dfa280cb04e84c416226143b4bc70815213[ALL|FORKID] 02bf447722c1b5245160cd6fc9c11a6f7d5914f9c532fc83db797040fd2e670c64","hex":"483045022100c51832ec1e31904b2860fd4092cf865db74611d758f67051d3d6e30f3ee2c07d0220023a5c20c4df7630b1ceb09458ea0dfa280cb04e84c416226143b4bc70815213412102bf447722c1b5245160cd6fc9c11a6f7d5914f9c532fc83db797040fd2e670c64"},"sequence":4294967295},{"coinbase":"","txid":"2493a33d4e44580239d21fcdc215191eee5328d4d80ab64715a2efa180f83860","vout":1,"scriptSig":{"asm":"304402204e9486c98713fa0acf4a596e12cd6c9f8e8bc826449ed7e2f24a9d5c491e9f2c02202739ed73c7a22c409b8ce719340788fdbdd1ff158b2707fc6bb422f932dfb270[ALL|FORKID] 0201bc7e573be3343cbfd2a709a8ea19a10fcb0895538470bea599dec308b23813","hex":"47304402204e9486c98713fa0acf4a596e12cd6c9f8e8bc826449ed7e2f24a9d5c491e9f2c02202739ed73c7a22c409b8ce719340788fdbdd1ff158b2707fc6bb422f932dfb27041210201bc7e573be3343cbfd2a709a8ea19a10fcb0895538470bea599dec308b23813"},"sequence":4294967295},{"coinbase":"","txid":"bd8d261a43f887bd37e74e09cda4f3e0072ef1586b3b31ca18fbf7b71a3e930d","vout":1,"scriptSig":{"asm":"3045022100e46a08d6ba89347b19b93073e8eeeaf29480d0558a4953c2cf382f35320b2187022043bc8dc44598125772d24eb1b77c33bc6e76026d712cfa02576efb9f433898f7[ALL|FORKID] 0347dbe007005ea841583713d09275ca00010e7baba69a7a039d93d630e21369a2","hex":"483045022100e46a08d6ba89347b19b93073e8eeeaf29480d0558a4953c2cf382f35320b2187022043bc8dc44598125772d24eb1b77c33bc6e76026d712cfa02576efb9f433898f741210347dbe007005ea841583713d09275ca00010e7baba69a7a039d93d630e21369a2"},"sequence":4294967295},{"coinbase":"","txid":"df4f0af10e946040a55f42c91312a4a71701ea964c7ba7501545d41e173af19f","vout":1,"scriptSig":{"asm":"3045022100bd74cdb92f6bbb7ae41ebe96398ea4ddaefd915fe5f0ebed3314af7afce8614b02201281efad3352eee2d61825c8ef95b1c1c51790b773931d7b60ae1848af85ae69[ALL|FORKID] 02f7ade7d1f1c27d98428c7eeaf39cdf911e444f29f36ff8697f425f3ff3c6de19","hex":"483045022100bd74cdb92f6bbb7ae41ebe96398ea4ddaefd915fe5f0ebed3314af7afce8614b02201281efad3352eee2d61825c8ef95b1c1c51790b773931d7b60ae1848af85ae69412102f7ade7d1f1c27d98428c7eeaf39cdf911e444f29f36ff8697f425f3ff3c6de19"},"sequence":4294967295}],"vout":[{"value":0.00001,"n":0,"scriptPubKey":{"asm":"OP_DUP OP_HASH160 52afc3f5deafafe8afeddc8bf7f4c704373416fb OP_EQUALVERIFY OP_CHECKSIG","hex":"76a91452afc3f5deafafe8afeddc8bf7f4c704373416fb88ac","reqSigs":1,"type":"pubkeyhash","addresses":["18YCy8VDYcXGnekHC4g3vphnJveTskhCLf"],"isTruncated":false}},{"value":0.00071252,"n":1,"scriptPubKey":{"asm":"OP_DUP OP_HASH160 67cefbeb28bbd328d3fb9aa6fec80aa38faaac1c OP_EQUALVERIFY OP_CHECKSIG","hex":"76a91467cefbeb28bbd328d3fb9aa6fec80aa38faaac1c88ac","reqSigs":1,"type":"pubkeyhash","addresses":["1ATtZGFXKtNqdnqy5XNtgGWyj5simVkZ43"],"isTruncated":false}},{"value":0.0027,"n":2,"scriptPubKey":{"asm":"626f6f7374706f77 OP_DROP 66 1ef2143013d42fd62940d79565aeb9f405ff69955ac755a65c0d16d84d65f37f 469886321 736c6169726f747574736e726f63612400000000 0 0000000000000000000000000000000000000000000000000000000000000000 OP_CAT OP_SWAP 5 OP_ROLL OP_DUP OP_TOALTSTACK OP_CAT 2 OP_PICK OP_TOALTSTACK 5 OP_ROLL OP_SIZE 4 OP_EQUALVERIFY OP_CAT 5 OP_ROLL OP_SIZE 8 OP_EQUALVERIFY OP_CAT OP_SWAP OP_CAT OP_HASH256 OP_SWAP OP_TOALTSTACK OP_CAT OP_CAT OP_SWAP OP_SIZE 4 OP_EQUALVERIFY OP_CAT OP_FROMALTSTACK OP_CAT OP_SWAP OP_SIZE 4 OP_EQUALVERIFY OP_CAT OP_HASH256 0 OP_CAT OP_BIN2NUM OP_FROMALTSTACK OP_SIZE 4 OP_EQUALVERIFY 3 OP_SPLIT OP_DUP OP_BIN2NUM 3 33 OP_WITHIN OP_VERIFY OP_TOALTSTACK OP_DUP OP_BIN2NUM 0 OP_GREATERTHAN OP_VERIFY 0000000000000000000000000000000000000000000000000000000000 OP_CAT OP_FROMALTSTACK 3 OP_SUB 8 OP_MUL OP_RSHIFT 0 OP_CAT OP_BIN2NUM OP_LESSTHAN OP_VERIFY OP_DUP OP_HASH160 OP_FROMALTSTACK OP_EQUALVERIFY OP_CHECKSIG","hex":"08626f6f7374706f77750442000000201ef2143013d42fd62940d79565aeb9f405ff69955ac755a65c0d16d84d65f37f0471e5011c14736c6169726f747574736e726f6361240000000004000000002000000000000000000000000000000000000000000000000000000000000000007e7c557a766b7e52796b557a8254887e557a8258887e7c7eaa7c6b7e7e7c8254887e6c7e7c8254887eaa01007e816c825488537f7681530121a5696b768100a0691d00000000000000000000000000000000000000000000000000000000007e6c539458959901007e819f6976a96c88ac","type":"nonstandard","tag":{"type":"nonstandard","action":""},"isTruncated":false}}],"blockhash":"000000000000000001cb651c1d4044720ad0e914941ab7220e805b8e812574b4","confirmations":151296,"time":1597243969,"blocktime":1597243969,"blockheight":647802}
        )
      );
    }
  ),
   rest.get(
    "https://api.whatsonchain.com/v1/bsv/main/tx/37c268f072b782a020efc5b3f0c4c0511c74f7b84084f08dabe6808099cb8e2a/hex",
    (req, res, ctx) => {
      return res(
        ctx.status(200),
        ctx.text(
          "0100000001b4398fd57bc5e1b33dde170567abf320f2622a7545d7e156f76913edb153f8cd030000006b483045022100b51d958b9a402de6a4a7169626e3466645e781cf96ea94938f4ed93dc0ee878f022012208479b6a67883a2d02c636f7cb1a6bea205df1c44f048392059c430ee9d29412102bf2e3c16d9f2afbdad69495d373086399c9c468296a47a39ace570b052da504affffffff040000000000000000fd2004006a223142414553785a4d776567326d473446473244455a6d42315572793272754172394b4db50142494531020b2629f3d5c99cf1837d618a9563e15ef53eb8be357338066524a39e787e251b5aaad0b8a56785f55be086da68b28480992232da38751bc5077b71af1501c94b1438d7a6429d03cfd0187d22a365c153c8932c1aafc125a8cf0ca76dd125814803c6053e9251971cd6a02807cccc14ebb8144b2088937fbc46ead7f20b2233c12fa7d7b398a7f87870be79920ce4ac5ae8cb2d7225d625e1e7310fca227e32499ce9bba247caf8cabe9e7168a2aef9a642fd3d376e9a50cbb1d2c32674a0b0b9330c1f4105a507838d8beca98ace57e083a27d778eef3c49ea5d3574b923df20bf4cb550cde12eb774ca62321a09af43221d07006507c83855a48ad22d0a9e6e5727e50d0d630b09127e1b507ad366c4ebab07471d013ee0f45d62c7c66d21d4e9e46073f1fb1a40e6b91974dec36ebd9115709f844ebe5e33ce4f1ac19de6b8ed8f191e1ac6d2fd4a7f347fe9d9af92c68fb88db2a0f839f0ffd53276e5eac7620c2d588aa20c9049eaffa89dc33dfef37eab0a8ed65703f6572bb6212620728449dcc8808c2619d94141c49f5e490229405bf58b9e39acf9324405b06db64d7c9078dedfccdc50f0b972568e9978f94c9542494531020b2629f3d5c99cf1837d618a9563e15ef53eb8be357338066524a39e787e251b851586daf095b3ba231e83739bae56f7fb44d4a15535af7fcb3be3bdb86e2484d914bb8284d0c871b0b46c0a87342f777c0d018304473483b955310100d793508629598e81ae1330265f450f1e4eb3928d287b1186ffbc659a671374e3b27234af55803098d62151f8e9d58b915877344c9542494531020b2629f3d5c99cf1837d618a9563e15ef53eb8be357338066524a39e787e251b851586daf095b3ba231e83739bae56f7fb44d4a15535af7fcb3be3bdb86e2484d914bb8284d0c871b0b46c0a87342f777c0d018304473483b955310100d793508629598e81ae1330265f450f1e4eb3928d287b1186ffbc659a671374e3b27234af55803098d62151f8e9d58b91587734017c22313569674368456b5557677834647345635375506974634c4e5a6d4e44665576674140656233623562646239323931666662353232336462623864366164303361333865316364383930366366303930353765373030653034343463363766363433614c5848362f414a506676515854596368716f6a7533515533704159676f6953676273357a6d433455514b46375a6845443271647156367a666b6943572f39496176625a494451577464784d48734f333034715866794a4e72413d423032306232363239663364356339396366313833376436313861393536336531356566353365623862653335373333383036363532346133396537383765323531621164406d6f6e6579627574746f6e2e636f6d630b0000000000001976a91465a7ca67c7c61ce54f0b4bef1b1bde910190a5d288acc516000000000000e108626f6f7374706f77750400000000203a647fc644040e707e0509cf0689cde1383ad06a8dbb3d22b5ff9192db5b3beb04ffff001d14534541420000000000000000000000000000000004000000002000000000000000000000000000000000000000000000000000000000000000007e7c557a766b7e52796b557a8254887e557a8258887e7c7eaa7c6b7e7e7c8254887e6c7e7c8254887eaa01007e816c825488537f7681530121a5696b768100a0691d00000000000000000000000000000000000000000000000000000000007e6c539458959901007e819f6976a96c88aca4df0600000000001976a914385075102226a252da1c31cc20dc46565852378888ac00000000"
        )
      );
    }
  ),
  //
  rest.get(
    "https://api.whatsonchain.com/v1/bsv/main/tx/fad3a6f86f7a61fad5790f9bb5696500ac8b88053738007e1b4048566a15366b/hex",
    (req, res, ctx) => {
      return res(
        ctx.status(200),
        ctx.text(
          "01000000010000000000000000000000000000000000000000000000000000000000000000ffffffff5803cb9d0b0424fd47630cfabe6d6d0000000000000000000000000000000000000000000000000000000000000000010000000000000047f1b7749c2300000000000015336266386537383363666264373230643131363437000000000140be4025000000001976a914c9b0abe09b7dd8e9d1e8c1e3502d32ab0d7119e488ac00000000"
        )
      );
    }
  ),
  rest.get(
    "https://api.whatsonchain.com/v1/bsv/main/tx/hash/37c268f072b782a020efc5b3f0c4c0511c74f7b84084f08dabe6808099cb8e2a",
    async (req, res, ctx) => {
        const read=readFileSync('./src/test/mocks/handlers/files/37c268f072b782a020efc5b3f0c4c0511c74f7b84084f08dabe6808099cb8e2a.json');
      return res(
        ctx.status(200),
        ctx.json(
            read
        )
      );
    }
  ),
  
];