import { rest } from "msw";

export const handlers = [
     rest.get(
    "https://api.whatsonchain.com/v1/bsv/main/tx/10256f067abdbe647a67b2ba4769e0b1ff9b4c3aa990e31f8f69c774cd1ee077/hex",
    (req, res, ctx) => {
      return res(
        ctx.status(200),
        ctx.text(
          "0200000001e1fde36ac18ce289dd8ed07c90424690f75fd59772cc9ae9305a891ab08895d10000000098483045022100b8a9cae7d3346c7aca4344d4fc0cd17ee93e1ed713a7d05274a4182c43c207cd02205ccc0aebbe7794ffa0959b243f7fa07c68493bfa7040ae852dc255319fd3325d412102f70cba8dfa2f23705c012c50a520ac0ac0fe61d2aec04a8c0b804f613348906e04076302000485a3d062086dbfa8a17b639b16040fc53a2214e8ee1688b47895f0e485ea0167c4eada12f6c579ffffffff019a260000000000001976a914e8ee1688b47895f0e485ea0167c4eada12f6c57988ac00000000"
        )
      );
    }
  ),
  rest.get(
    "https://api.whatsonchain.com/v1/bsv/main/tx/1086dd56c7fbadf272f2aec4cbe54129a8af7535835df0d0a68d2a22ac7ef7c5/hex",
    (req, res, ctx) => {
      return res(
        ctx.status(200),
        ctx.text(
          "020000000128cfa7fbce2f9ae25f65565808df20bd9036c5f0e10deffb55acee85a677c3a10000000098483045022100d13b48d143ea79d802ba53f9b80ac7306c1dde151e8a53285a688ec920e7314f022017210f88c3403445f786b25ecc0bb1bbf84a6c6aa45d7a085a265568995321a2412102f70cba8dfa2f23705c012c50a520ac0ac0fe61d2aec04a8c0b804f613348906e04cc240000040596d0620870b85b0841a80f960458a5a31714e8ee1688b47895f0e485ea0167c4eada12f6c579ffffffff019a260000000000001976a914e8ee1688b47895f0e485ea0167c4eada12f6c57988ac00000000"
        )
      );
    }
  ),
  rest.get(
    "https://api.whatsonchain.com/v1/bsv/main/tx/a1c377a685eeac55fbef0de1f0c53690bd20df085856655fe29a2fcefba7cf28/hex",
    (req, res, ctx) => {
      return res(
        ctx.status(200),
        ctx.text(
          "010000000163074cae66f77579e5a74f3107eb998200b968b6abed09a455fab4e356878bc2010000006b4830450221009082659978882792bcf9bbb43aaf9c0e4cf38f13c777364a7e9f4ca56782f52f02203b03691caa7e0bd29241dd1640d82c93f00c822af3e4ea993b018337ff3c249d412102f70cba8dfa2f23705c012c50a520ac0ac0fe61d2aec04a8c0b804f613348906effffffff031027000000000000ad08626f6f7374706f7775040000000020eac688537c65efefdec27bda82a0e693e4a0bfa7b79dcf8e0eb45afa775db650049e86011f00045e84c60b007e7c557a766b7e52796b557a8254887e557a8258887e7c7eaa7c6b7e7e7c8254887e6c7e7c8254887eaa01007e816c825488537f7681530121a5696b768100a0691d00000000000000000000000000000000000000000000000000000000007e6c539458959901007e819f6976a96c88ac00000000000000003d006a076f6e636861696e223138705051696775376a3639696f4463554739644143453169414e396e43666f7772036a6f620b7b22696e646578223a307dc5b80c00000000001976a914e8ee1688b47895f0e485ea0167c4eada12f6c57988ac00000000"
        )
      );
    }
  ),
  rest.get(
    "https://api.whatsonchain.com/v1/bsv/main/tx/hash/a1c377a685eeac55fbef0de1f0c53690bd20df085856655fe29a2fcefba7cf28",
    (req, res, ctx) => {
      return res(
        ctx.status(200),
        ctx.json(
          {"txid":"a1c377a685eeac55fbef0de1f0c53690bd20df085856655fe29a2fcefba7cf28","hash":"a1c377a685eeac55fbef0de1f0c53690bd20df085856655fe29a2fcefba7cf28","version":1,"size":444,"locktime":0,"vin":[{"coinbase":"","txid":"c28b8756e3b4fa55a409edabb668b9008299eb07314fa7e57975f766ae4c0763","vout":1,"scriptSig":{"asm":"30450221009082659978882792bcf9bbb43aaf9c0e4cf38f13c777364a7e9f4ca56782f52f02203b03691caa7e0bd29241dd1640d82c93f00c822af3e4ea993b018337ff3c249d[ALL|FORKID] 02f70cba8dfa2f23705c012c50a520ac0ac0fe61d2aec04a8c0b804f613348906e","hex":"4830450221009082659978882792bcf9bbb43aaf9c0e4cf38f13c777364a7e9f4ca56782f52f02203b03691caa7e0bd29241dd1640d82c93f00c822af3e4ea993b018337ff3c249d412102f70cba8dfa2f23705c012c50a520ac0ac0fe61d2aec04a8c0b804f613348906e"},"sequence":4294967295}],"vout":[{"value":0.0001,"n":0,"scriptPubKey":{"asm":"626f6f7374706f77 OP_DROP 0 eac688537c65efefdec27bda82a0e693e4a0bfa7b79dcf8e0eb45afa775db650 520193694 0 197559390 0 OP_CAT OP_SWAP 5 OP_ROLL OP_DUP OP_TOALTSTACK OP_CAT 2 OP_PICK OP_TOALTSTACK 5 OP_ROLL OP_SIZE 4 OP_EQUALVERIFY OP_CAT 5 OP_ROLL OP_SIZE 8 OP_EQUALVERIFY OP_CAT OP_SWAP OP_CAT OP_HASH256 OP_SWAP OP_TOALTSTACK OP_CAT OP_CAT OP_SWAP OP_SIZE 4 OP_EQUALVERIFY OP_CAT OP_FROMALTSTACK OP_CAT OP_SWAP OP_SIZE 4 OP_EQUALVERIFY OP_CAT OP_HASH256 0 OP_CAT OP_BIN2NUM OP_FROMALTSTACK OP_SIZE 4 OP_EQUALVERIFY 3 OP_SPLIT OP_DUP OP_BIN2NUM 3 33 OP_WITHIN OP_VERIFY OP_TOALTSTACK OP_DUP OP_BIN2NUM 0 OP_GREATERTHAN OP_VERIFY 0000000000000000000000000000000000000000000000000000000000 OP_CAT OP_FROMALTSTACK 3 OP_SUB 8 OP_MUL OP_RSHIFT 0 OP_CAT OP_BIN2NUM OP_LESSTHAN OP_VERIFY OP_DUP OP_HASH160 OP_FROMALTSTACK OP_EQUALVERIFY OP_CHECKSIG","hex":"08626f6f7374706f7775040000000020eac688537c65efefdec27bda82a0e693e4a0bfa7b79dcf8e0eb45afa775db650049e86011f00045e84c60b007e7c557a766b7e52796b557a8254887e557a8258887e7c7eaa7c6b7e7e7c8254887e6c7e7c8254887eaa01007e816c825488537f7681530121a5696b768100a0691d00000000000000000000000000000000000000000000000000000000007e6c539458959901007e819f6976a96c88ac","type":"nonstandard","tag":{"type":"nonstandard","action":""},"isTruncated":false}},{"value":0,"n":1,"scriptPubKey":{"asm":"0 OP_RETURN 6f6e636861696e 3138705051696775376a3639696f4463554739644143453169414e396e43666f7772 6451050 7b22696e646578223a307d","hex":"006a076f6e636861696e223138705051696775376a3639696f4463554739644143453169414e396e43666f7772036a6f620b7b22696e646578223a307d","type":"nulldata","opReturn":{"type":"OP_RETURN","action":"","text":"","parts":["onchain","18pPQigu7j69ioDcUG9dACE1iAN9nCfowr","job","{\"index\":0}"]},"isTruncated":false}},{"value":0.00833733,"n":2,"scriptPubKey":{"asm":"OP_DUP OP_HASH160 e8ee1688b47895f0e485ea0167c4eada12f6c579 OP_EQUALVERIFY OP_CHECKSIG","hex":"76a914e8ee1688b47895f0e485ea0167c4eada12f6c57988ac","reqSigs":1,"type":"pubkeyhash","addresses":["1NEcz9jQwdTi19qup2tKkeYjYd4HGZGb4W"],"isTruncated":false}}],"blockhash":"00000000000000000aa8c2b13e8edfbafba492998da3eee2f77e3d7e9f852dbf","confirmations":50843,"time":1657839067,"blocktime":1657839067,"blockheight":748259}
        )
      );
    }
  ),
];