import { rest } from "msw";

export const handlers = [
     rest.get(
    "https://api.whatsonchain.com/v1/bsv/main/tx/d19588b01a895a30e99acc7297d55ff7904642907cd08edd89e28cc16ae3fde1/hex",
    (req, res, ctx) => {
      return res(
        ctx.status(200),
        ctx.text(
          "0100000001bd3216d81ef9657a600368e657c6e62bd9e6f4a2cd613424973dcadae01fab20010000006a47304402205775d201a9f4c03d227cb1fc2fdc4599f5f2298c5fa9869b8b8e0e9404e78c2a022028fb91c66081c797d6424de1f569307d689aaaff6609d2de541ed02f00278cce412102f70cba8dfa2f23705c012c50a520ac0ac0fe61d2aec04a8c0b804f613348906effffffff031027000000000000ad08626f6f7374706f7775040000000020eac688537c65efefdec27bda82a0e693e4a0bfa7b79dcf8e0eb45afa775db650049e86011f0004150bdf18007e7c557a766b7e52796b557a8254887e557a8258887e7c7eaa7c6b7e7e7c8254887e6c7e7c8254887eaa01007e816c825488537f7681530121a5696b768100a0691d00000000000000000000000000000000000000000000000000000000007e6c539458959901007e819f6976a96c88ac00000000000000003d006a076f6e636861696e223138705051696775376a3639696f4463554739644143453169414e396e43666f7772036a6f620b7b22696e646578223a307d00900c00000000001976a914e8ee1688b47895f0e485ea0167c4eada12f6c57988ac00000000"
        )
      );
    }
  ),
  // https://api.whatsonchain.com/v1/bsv/main/tx/hash/d19588b01a895a30e99acc7297d55ff7904642907cd08edd89e28cc16ae3fde1
  rest.get(
    "https://api.whatsonchain.com/v1/bsv/main/tx/hash/d19588b01a895a30e99acc7297d55ff7904642907cd08edd89e28cc16ae3fde1",
    (req, res, ctx) => {
      return res(
        ctx.status(200),
        ctx.json(
            {"txid":"d19588b01a895a30e99acc7297d55ff7904642907cd08edd89e28cc16ae3fde1","hash":"d19588b01a895a30e99acc7297d55ff7904642907cd08edd89e28cc16ae3fde1","version":1,"size":443,"locktime":0,"vin":[{"coinbase":"","txid":"20ab1fe0daca3d97243461cda2f4e6d92be6c657e66803607a65f91ed81632bd","vout":1,"scriptSig":{"asm":"304402205775d201a9f4c03d227cb1fc2fdc4599f5f2298c5fa9869b8b8e0e9404e78c2a022028fb91c66081c797d6424de1f569307d689aaaff6609d2de541ed02f00278cce[ALL|FORKID] 02f70cba8dfa2f23705c012c50a520ac0ac0fe61d2aec04a8c0b804f613348906e","hex":"47304402205775d201a9f4c03d227cb1fc2fdc4599f5f2298c5fa9869b8b8e0e9404e78c2a022028fb91c66081c797d6424de1f569307d689aaaff6609d2de541ed02f00278cce412102f70cba8dfa2f23705c012c50a520ac0ac0fe61d2aec04a8c0b804f613348906e"},"sequence":4294967295}],"vout":[{"value":0.0001,"n":0,"scriptPubKey":{"asm":"626f6f7374706f77 OP_DROP 0 eac688537c65efefdec27bda82a0e693e4a0bfa7b79dcf8e0eb45afa775db650 520193694 0 417270549 0 OP_CAT OP_SWAP 5 OP_ROLL OP_DUP OP_TOALTSTACK OP_CAT 2 OP_PICK OP_TOALTSTACK 5 OP_ROLL OP_SIZE 4 OP_EQUALVERIFY OP_CAT 5 OP_ROLL OP_SIZE 8 OP_EQUALVERIFY OP_CAT OP_SWAP OP_CAT OP_HASH256 OP_SWAP OP_TOALTSTACK OP_CAT OP_CAT OP_SWAP OP_SIZE 4 OP_EQUALVERIFY OP_CAT OP_FROMALTSTACK OP_CAT OP_SWAP OP_SIZE 4 OP_EQUALVERIFY OP_CAT OP_HASH256 0 OP_CAT OP_BIN2NUM OP_FROMALTSTACK OP_SIZE 4 OP_EQUALVERIFY 3 OP_SPLIT OP_DUP OP_BIN2NUM 3 33 OP_WITHIN OP_VERIFY OP_TOALTSTACK OP_DUP OP_BIN2NUM 0 OP_GREATERTHAN OP_VERIFY 0000000000000000000000000000000000000000000000000000000000 OP_CAT OP_FROMALTSTACK 3 OP_SUB 8 OP_MUL OP_RSHIFT 0 OP_CAT OP_BIN2NUM OP_LESSTHAN OP_VERIFY OP_DUP OP_HASH160 OP_FROMALTSTACK OP_EQUALVERIFY OP_CHECKSIG","hex":"08626f6f7374706f7775040000000020eac688537c65efefdec27bda82a0e693e4a0bfa7b79dcf8e0eb45afa775db650049e86011f0004150bdf18007e7c557a766b7e52796b557a8254887e557a8258887e7c7eaa7c6b7e7e7c8254887e6c7e7c8254887eaa01007e816c825488537f7681530121a5696b768100a0691d00000000000000000000000000000000000000000000000000000000007e6c539458959901007e819f6976a96c88ac","type":"nonstandard","tag":{"type":"nonstandard","action":""},"isTruncated":false}},{"value":0,"n":1,"scriptPubKey":{"asm":"0 OP_RETURN 6f6e636861696e 3138705051696775376a3639696f4463554739644143453169414e396e43666f7772 6451050 7b22696e646578223a307d","hex":"006a076f6e636861696e223138705051696775376a3639696f4463554739644143453169414e396e43666f7772036a6f620b7b22696e646578223a307d","type":"nulldata","opReturn":{"type":"OP_RETURN","action":"","text":"","parts":["onchain","18pPQigu7j69ioDcUG9dACE1iAN9nCfowr","job","{\"index\":0}"]},"isTruncated":false}},{"value":0.00823296,"n":2,"scriptPubKey":{"asm":"OP_DUP OP_HASH160 e8ee1688b47895f0e485ea0167c4eada12f6c579 OP_EQUALVERIFY OP_CHECKSIG","hex":"76a914e8ee1688b47895f0e485ea0167c4eada12f6c57988ac","reqSigs":1,"type":"pubkeyhash","addresses":["1NEcz9jQwdTi19qup2tKkeYjYd4HGZGb4W"],"isTruncated":false}}],"blockhash":"000000000000000001e737004ca51eb832da3d66e1bc0a43d36a8ea01ce07789","confirmations":50830,"time":1657842307,"blocktime":1657842307,"blockheight":748261}
        )
      );
    }
  ),
];